{
  "_format": "hh-sol-artifact-1",
  "contractName": "PriceConverter",
  "sourceName": "contracts/PriceConverter.sol",
  "abi": [
    {
      "inputs": [
        {
          "internalType": "uint256",
          "name": "amountInUSD",
          "type": "uint256"
        }
      ],
      "name": "convertFromUSD",
      "outputs": [
        {
          "internalType": "uint256",
          "name": "",
          "type": "uint256"
        }
      ],
      "stateMutability": "view",
      "type": "function"
    },
    {
      "inputs": [],
      "name": "getPrice",
      "outputs": [
        {
          "internalType": "uint256",
          "name": "",
          "type": "uint256"
        },
        {
          "internalType": "uint256",
          "name": "",
          "type": "uint256"
        }
      ],
      "stateMutability": "view",
      "type": "function"
    },
    {
      "inputs": [],
      "name": "priceFeedAddress",
      "outputs": [
        {
          "internalType": "address",
          "name": "",
          "type": "address"
        }
      ],
      "stateMutability": "view",
      "type": "function"
    }
  ],
  "bytecode": "0x608060405234801561001057600080fd5b5061076c806100206000396000f3fe608060405234801561001057600080fd5b50600436106100415760003560e01c806395b366701461004657806398d5fdca14610076578063e0abca0b14610095575b600080fd5b610060600480360381019061005b91906102c4565b6100b3565b60405161006d91906103c6565b60405180910390f35b61007e6100f6565b60405161008c9291906103e1565b60405180910390f35b61009d610237565b6040516100aa91906103ab565b60405180910390f35b60008060006100c06100f6565b9150915060008282600a6100d4919061048e565b866100df91906105ac565b6100e9919061040a565b9050809350505050919050565b60008060008060009054906101000a900473ffffffffffffffffffffffffffffffffffffffff16905060008173ffffffffffffffffffffffffffffffffffffffff1663feaf968c6040518163ffffffff1660e01b815260040160a06040518083038186803b15801561016757600080fd5b505afa15801561017b573d6000803e3d6000fd5b505050506040513d601f19601f8201168201806040525081019061019f91906102ed565b50505091505060008273ffffffffffffffffffffffffffffffffffffffff1663313ce5676040518163ffffffff1660e01b815260040160206040518083038186803b1580156101ed57600080fd5b505afa158015610201573d6000803e3d6000fd5b505050506040513d601f19601f820116820180604052508101906102259190610364565b60ff1690508181945094505050509091565b60008054906101000a900473ffffffffffffffffffffffffffffffffffffffff1681565b60008151905061026a816106da565b92915050565b60008135905061027f816106f1565b92915050565b600081519050610294816106f1565b92915050565b6000815190506102a98161071f565b92915050565b6000815190506102be81610708565b92915050565b6000602082840312156102d657600080fd5b60006102e484828501610270565b91505092915050565b600080600080600060a0868803121561030557600080fd5b60006103138882890161029a565b95505060206103248882890161025b565b945050604061033588828901610285565b935050606061034688828901610285565b92505060806103578882890161029a565b9150509295509295909350565b60006020828403121561037657600080fd5b6000610384848285016102af565b91505092915050565b61039681610606565b82525050565b6103a581610642565b82525050565b60006020820190506103c0600083018461038d565b92915050565b60006020820190506103db600083018461039c565b92915050565b60006040820190506103f6600083018561039c565b610403602083018461039c565b9392505050565b600061041582610642565b915061042083610642565b9250826104305761042f61069e565b5b828204905092915050565b6000808291508390505b6001851115610485578086048111156104615761046061066f565b5b60018516156104705780820291505b808102905061047e856106cd565b9450610445565b94509492505050565b600061049982610642565b91506104a483610642565b92506104d17fffffffffffffffffffffffffffffffffffffffffffffffffffffffffffffffff84846104d9565b905092915050565b6000826104e957600190506105a5565b816104f757600090506105a5565b816001811461050d576002811461051757610546565b60019150506105a5565b60ff8411156105295761052861066f565b5b8360020a9150848211156105405761053f61066f565b5b506105a5565b5060208310610133831016604e8410600b841016171561057b5782820a9050838111156105765761057561066f565b5b6105a5565b610588848484600161043b565b9250905081840481111561059f5761059e61066f565b5b81810290505b9392505050565b60006105b782610642565b91506105c283610642565b9250817fffffffffffffffffffffffffffffffffffffffffffffffffffffffffffffffff04831182151516156105fb576105fa61066f565b5b828202905092915050565b600061061182610622565b9050919050565b6000819050919050565b600073ffffffffffffffffffffffffffffffffffffffff82169050919050565b6000819050919050565b600060ff82169050919050565b600069ffffffffffffffffffff82169050919050565b7f4e487b7100000000000000000000000000000000000000000000000000000000600052601160045260246000fd5b7f4e487b7100000000000000000000000000000000000000000000000000000000600052601260045260246000fd5b60008160011c9050919050565b6106e381610618565b81146106ee57600080fd5b50565b6106fa81610642565b811461070557600080fd5b50565b6107118161064c565b811461071c57600080fd5b50565b61072881610659565b811461073357600080fd5b5056fea2646970667358221220d9adf683e176241e12acd2612194595254bac5477c3a7f83e550cda367717d3964736f6c63430008040033",
  "linkReferences": {},
  "deployedLinkReferences": {}
}