{
  "_format": "hh-sol-artifact-1",
  "contractName": "DecentralAirbnb",
  "sourceName": "contracts/DecentralAirbnb.sol",
  "abi": [
    {
      "inputs": [
        {
          "internalType": "uint256",
          "name": "_listingFee",
          "type": "uint256"
        },
        {
          "internalType": "address",
          "name": "_priceFeedAddress",
          "type": "address"
        }
      ],
      "stateMutability": "nonpayable",
      "type": "constructor"
    },
    {
      "anonymous": false,
      "inputs": [
        {
          "indexed": false,
          "internalType": "uint256",
          "name": "rentalId",
          "type": "uint256"
        },
        {
          "indexed": false,
          "internalType": "address",
          "name": "renter",
          "type": "address"
        },
        {
          "indexed": false,
          "internalType": "uint256",
          "name": "bookDateStart",
          "type": "uint256"
        },
        {
          "indexed": false,
          "internalType": "uint256",
          "name": "bookDateEnd",
          "type": "uint256"
        },
        {
          "indexed": false,
          "internalType": "uint256",
          "name": "timestamp",
          "type": "uint256"
        }
      ],
      "name": "NewBookAdded",
      "type": "event"
    },
    {
      "anonymous": false,
      "inputs": [
        {
          "indexed": false,
          "internalType": "uint256",
          "name": "id",
          "type": "uint256"
        },
        {
          "indexed": false,
          "internalType": "address",
          "name": "owner",
          "type": "address"
        },
        {
          "indexed": false,
          "internalType": "string",
          "name": "name",
          "type": "string"
        },
        {
          "indexed": false,
          "internalType": "string",
          "name": "city",
          "type": "string"
        },
        {
          "indexed": false,
          "internalType": "string",
          "name": "latitude",
          "type": "string"
        },
        {
          "indexed": false,
          "internalType": "string",
          "name": "longitude",
          "type": "string"
        },
        {
          "indexed": false,
          "internalType": "string",
          "name": "description",
          "type": "string"
        },
        {
          "indexed": false,
          "internalType": "string",
          "name": "imgUrl",
          "type": "string"
        },
        {
          "indexed": false,
          "internalType": "uint256",
          "name": "maxGuests",
          "type": "uint256"
        },
        {
          "indexed": false,
          "internalType": "uint256",
          "name": "pricePerDay",
          "type": "uint256"
        },
        {
          "indexed": false,
          "internalType": "uint256",
          "name": "timestamp",
          "type": "uint256"
        }
      ],
      "name": "NewRentalCreated",
      "type": "event"
    },
    {
      "inputs": [
        {
          "internalType": "string",
          "name": "_name",
          "type": "string"
        },
        {
          "internalType": "string",
          "name": "_city",
          "type": "string"
        },
        {
          "internalType": "string",
          "name": "_latitude",
          "type": "string"
        },
        {
          "internalType": "string",
          "name": "_longitude",
          "type": "string"
        },
        {
          "internalType": "string",
          "name": "_description",
          "type": "string"
        },
        {
          "internalType": "string",
          "name": "_imgUrl",
          "type": "string"
        },
        {
          "internalType": "uint256",
          "name": "_maxGuests",
          "type": "uint256"
        },
        {
          "internalType": "uint256",
          "name": "_pricePerDay",
          "type": "uint256"
        }
      ],
      "name": "addRental",
      "outputs": [],
      "stateMutability": "payable",
      "type": "function"
    },
    {
      "inputs": [],
      "name": "admin",
      "outputs": [
        {
          "internalType": "address",
          "name": "",
          "type": "address"
        }
      ],
      "stateMutability": "view",
      "type": "function"
    },
    {
      "inputs": [
        {
          "internalType": "uint256",
          "name": "_id",
          "type": "uint256"
        },
        {
          "internalType": "uint256",
          "name": "_fromDateTimestamp",
          "type": "uint256"
        },
        {
          "internalType": "uint256",
          "name": "_toDateTimestamp",
          "type": "uint256"
        }
      ],
      "name": "bookDates",
      "outputs": [],
      "stateMutability": "payable",
      "type": "function"
    },
    {
      "inputs": [
        {
          "internalType": "uint256",
          "name": "_newFee",
          "type": "uint256"
        }
      ],
      "name": "changeListingFee",
      "outputs": [],
      "stateMutability": "nonpayable",
      "type": "function"
    },
    {
      "inputs": [
        {
          "internalType": "uint256",
          "name": "amountInUSD",
          "type": "uint256"
        }
      ],
      "name": "convertFromUSD",
      "outputs": [
        {
          "internalType": "uint256",
          "name": "",
          "type": "uint256"
        }
      ],
      "stateMutability": "view",
      "type": "function"
    },
    {
      "inputs": [],
      "name": "getBalance",
      "outputs": [
        {
          "internalType": "uint256",
          "name": "",
          "type": "uint256"
        }
      ],
      "stateMutability": "view",
      "type": "function"
    },
    {
      "inputs": [],
      "name": "getPrice",
      "outputs": [
        {
          "internalType": "uint256",
          "name": "",
          "type": "uint256"
        },
        {
          "internalType": "uint256",
          "name": "",
          "type": "uint256"
        }
      ],
      "stateMutability": "view",
      "type": "function"
    },
    {
      "inputs": [
        {
          "internalType": "uint256",
          "name": "_id",
          "type": "uint256"
        }
      ],
      "name": "getRentalBookings",
      "outputs": [
        {
          "components": [
            {
              "internalType": "address",
              "name": "renter",
              "type": "address"
            },
            {
              "internalType": "uint256",
              "name": "fromTimestamp",
              "type": "uint256"
            },
            {
              "internalType": "uint256",
              "name": "toTimestamp",
              "type": "uint256"
            }
          ],
          "internalType": "struct DecentralAirbnb.Booking[]",
          "name": "",
          "type": "tuple[]"
        }
      ],
      "stateMutability": "view",
      "type": "function"
    },
    {
      "inputs": [
        {
          "internalType": "uint256",
          "name": "_id",
          "type": "uint256"
        }
      ],
      "name": "getRentalInfo",
      "outputs": [
        {
          "components": [
            {
              "internalType": "uint256",
              "name": "id",
              "type": "uint256"
            },
            {
              "internalType": "address",
              "name": "owner",
              "type": "address"
            },
            {
              "internalType": "string",
              "name": "name",
              "type": "string"
            },
            {
              "internalType": "string",
              "name": "city",
              "type": "string"
            },
            {
              "internalType": "string",
              "name": "latitude",
              "type": "string"
            },
            {
              "internalType": "string",
              "name": "longitude",
              "type": "string"
            },
            {
              "internalType": "string",
              "name": "description",
              "type": "string"
            },
            {
              "internalType": "string",
              "name": "imgUrl",
              "type": "string"
            },
            {
              "internalType": "uint256",
              "name": "maxNumberOfGuests",
              "type": "uint256"
            },
            {
              "internalType": "uint256",
              "name": "pricePerDay",
              "type": "uint256"
            }
          ],
          "internalType": "struct DecentralAirbnb.RentalInfo",
          "name": "",
          "type": "tuple"
        }
      ],
      "stateMutability": "view",
      "type": "function"
    },
    {
      "inputs": [],
      "name": "getRentals",
      "outputs": [
        {
          "components": [
            {
              "internalType": "uint256",
              "name": "id",
              "type": "uint256"
            },
            {
              "internalType": "address",
              "name": "owner",
              "type": "address"
            },
            {
              "internalType": "string",
              "name": "name",
              "type": "string"
            },
            {
              "internalType": "string",
              "name": "city",
              "type": "string"
            },
            {
              "internalType": "string",
              "name": "latitude",
              "type": "string"
            },
            {
              "internalType": "string",
              "name": "longitude",
              "type": "string"
            },
            {
              "internalType": "string",
              "name": "description",
              "type": "string"
            },
            {
              "internalType": "string",
              "name": "imgUrl",
              "type": "string"
            },
            {
              "internalType": "uint256",
              "name": "maxNumberOfGuests",
              "type": "uint256"
            },
            {
              "internalType": "uint256",
              "name": "pricePerDay",
              "type": "uint256"
            }
          ],
          "internalType": "struct DecentralAirbnb.RentalInfo[]",
          "name": "",
          "type": "tuple[]"
        }
      ],
      "stateMutability": "view",
      "type": "function"
    },
    {
      "inputs": [],
      "name": "listingFee",
      "outputs": [
        {
          "internalType": "uint256",
          "name": "",
          "type": "uint256"
        }
      ],
      "stateMutability": "view",
      "type": "function"
    },
    {
      "inputs": [],
      "name": "priceFeedAddress",
      "outputs": [
        {
          "internalType": "address",
          "name": "",
          "type": "address"
        }
      ],
      "stateMutability": "view",
      "type": "function"
    },
    {
      "inputs": [
        {
          "internalType": "uint256",
          "name": "",
          "type": "uint256"
        }
      ],
      "name": "rentals",
      "outputs": [
        {
          "internalType": "uint256",
          "name": "id",
          "type": "uint256"
        },
        {
          "internalType": "address",
          "name": "owner",
          "type": "address"
        },
        {
          "internalType": "string",
          "name": "name",
          "type": "string"
        },
        {
          "internalType": "string",
          "name": "city",
          "type": "string"
        },
        {
          "internalType": "string",
          "name": "latitude",
          "type": "string"
        },
        {
          "internalType": "string",
          "name": "longitude",
          "type": "string"
        },
        {
          "internalType": "string",
          "name": "description",
          "type": "string"
        },
        {
          "internalType": "string",
          "name": "imgUrl",
          "type": "string"
        },
        {
          "internalType": "uint256",
          "name": "maxNumberOfGuests",
          "type": "uint256"
        },
        {
          "internalType": "uint256",
          "name": "pricePerDay",
          "type": "uint256"
        }
      ],
      "stateMutability": "view",
      "type": "function"
    },
    {
      "inputs": [],
      "name": "withdrawBalance",
      "outputs": [],
      "stateMutability": "nonpayable",
      "type": "function"
    }
  ],
  "bytecode": "0x60806040523480156200001157600080fd5b50604051620034f0380380620034f08339818101604052810190620000379190620000f5565b33600160006101000a81548173ffffffffffffffffffffffffffffffffffffffff021916908373ffffffffffffffffffffffffffffffffffffffff16021790555081600281905550806000806101000a81548173ffffffffffffffffffffffffffffffffffffffff021916908373ffffffffffffffffffffffffffffffffffffffff1602179055505050620001a8565b600081519050620000d88162000174565b92915050565b600081519050620000ef816200018e565b92915050565b600080604083850312156200010957600080fd5b60006200011985828601620000de565b92505060206200012c85828601620000c7565b9150509250929050565b600062000143826200014a565b9050919050565b600073ffffffffffffffffffffffffffffffffffffffff82169050919050565b6000819050919050565b6200017f8162000136565b81146200018b57600080fd5b50565b62000199816200016a565b8114620001a557600080fd5b50565b61333880620001b86000396000f3fe6080604052600436106100dd5760003560e01c80637eb897241161007f5780639982aaeb116100595780639982aaeb146102a2578063af94a1d1146102be578063e0abca0b14610304578063f851a4401461032f576100dd565b80637eb89724146101fc57806395b366701461023957806398d5fdca14610276576100dd565b80635ea5da20116100bb5780635ea5da20146101665780635fd8c710146101915780636a1b7ecc146101a857806377f25f6f146101d3576100dd565b806312065fe0146100e257806327dc3fbd1461010d57806346e6e5fb1461014a575b600080fd5b3480156100ee57600080fd5b506100f761035a565b6040516101049190612a28565b60405180910390f35b34801561011957600080fd5b50610134600480360381019061012f9190612314565b610362565b6040516101419190612a06565b60405180910390f35b610164600480360381019061015f919061233d565b6107e9565b005b34801561017257600080fd5b5061017b610e89565b6040516101889190612924565b60405180910390f35b34801561019d57600080fd5b506101a66112c9565b005b3480156101b457600080fd5b506101bd6113c4565b6040516101ca9190612a28565b60405180910390f35b3480156101df57600080fd5b506101fa60048036038101906101f59190612314565b6113ca565b005b34801561020857600080fd5b50610223600480360381019061021e9190612314565b611464565b6040516102309190612902565b60405180910390f35b34801561024557600080fd5b50610260600480360381019061025b9190612314565b611584565b60405161026d9190612a28565b60405180910390f35b34801561028257600080fd5b5061028b6115c7565b604051610299929190612c31565b60405180910390f35b6102bc60048036038101906102b791906121d2565b611708565b005b3480156102ca57600080fd5b506102e560048036038101906102e09190612314565b611965565b6040516102fb9a99989796959493929190612a43565b60405180910390f35b34801561031057600080fd5b50610319611d19565b60405161032691906128e7565b60405180910390f35b34801561033b57600080fd5b50610344611d3d565b60405161035191906128e7565b60405180910390f35b600047905090565b61036a611ff5565b60035482106103ae576040517f08c379a00000000000000000000000000000000000000000000000000000000081526004016103a590612966565b60405180910390fd5b600482815481106103e8577f4e487b7100000000000000000000000000000000000000000000000000000000600052603260045260246000fd5b90600052602060002090600a020160405180610140016040529081600082015481526020016001820160009054906101000a900473ffffffffffffffffffffffffffffffffffffffff1673ffffffffffffffffffffffffffffffffffffffff1673ffffffffffffffffffffffffffffffffffffffff1681526020016002820180546104729061302a565b80601f016020809104026020016040519081016040528092919081815260200182805461049e9061302a565b80156104eb5780601f106104c0576101008083540402835291602001916104eb565b820191906000526020600020905b8154815290600101906020018083116104ce57829003601f168201915b505050505081526020016003820180546105049061302a565b80601f01602080910402602001604051908101604052809291908181526020018280546105309061302a565b801561057d5780601f106105525761010080835404028352916020019161057d565b820191906000526020600020905b81548152906001019060200180831161056057829003601f168201915b505050505081526020016004820180546105969061302a565b80601f01602080910402602001604051908101604052809291908181526020018280546105c29061302a565b801561060f5780601f106105e45761010080835404028352916020019161060f565b820191906000526020600020905b8154815290600101906020018083116105f257829003601f168201915b505050505081526020016005820180546106289061302a565b80601f01602080910402602001604051908101604052809291908181526020018280546106549061302a565b80156106a15780601f10610676576101008083540402835291602001916106a1565b820191906000526020600020905b81548152906001019060200180831161068457829003601f168201915b505050505081526020016006820180546106ba9061302a565b80601f01602080910402602001604051908101604052809291908181526020018280546106e69061302a565b80156107335780601f1061070857610100808354040283529160200191610733565b820191906000526020600020905b81548152906001019060200180831161071657829003601f168201915b5050505050815260200160078201805461074c9061302a565b80601f01602080910402602001604051908101604052809291908181526020018280546107789061302a565b80156107c55780601f1061079a576101008083540402835291602001916107c5565b820191906000526020600020905b8154815290600101906020018083116107a857829003601f168201915b50505050508152602001600882015481526020016009820154815250509050919050565b600354831061082d576040517f08c379a000000000000000000000000000000000000000000000000000000000815260040161082490612986565b60405180910390fd5b600060048481548110610869577f4e487b7100000000000000000000000000000000000000000000000000000000600052603260045260246000fd5b90600052602060002090600a020160405180610140016040529081600082015481526020016001820160009054906101000a900473ffffffffffffffffffffffffffffffffffffffff1673ffffffffffffffffffffffffffffffffffffffff1673ffffffffffffffffffffffffffffffffffffffff1681526020016002820180546108f39061302a565b80601f016020809104026020016040519081016040528092919081815260200182805461091f9061302a565b801561096c5780601f106109415761010080835404028352916020019161096c565b820191906000526020600020905b81548152906001019060200180831161094f57829003601f168201915b505050505081526020016003820180546109859061302a565b80601f01602080910402602001604051908101604052809291908181526020018280546109b19061302a565b80156109fe5780601f106109d3576101008083540402835291602001916109fe565b820191906000526020600020905b8154815290600101906020018083116109e157829003601f168201915b50505050508152602001600482018054610a179061302a565b80601f0160208091040260200160405190810160405280929190818152602001828054610a439061302a565b8015610a905780601f10610a6557610100808354040283529160200191610a90565b820191906000526020600020905b815481529060010190602001808311610a7357829003601f168201915b50505050508152602001600582018054610aa99061302a565b80601f0160208091040260200160405190810160405280929190818152602001828054610ad59061302a565b8015610b225780601f10610af757610100808354040283529160200191610b22565b820191906000526020600020905b815481529060010190602001808311610b0557829003601f168201915b50505050508152602001600682018054610b3b9061302a565b80601f0160208091040260200160405190810160405280929190818152602001828054610b679061302a565b8015610bb45780601f10610b8957610100808354040283529160200191610bb4565b820191906000526020600020905b815481529060010190602001808311610b9757829003601f168201915b50505050508152602001600782018054610bcd9061302a565b80601f0160208091040260200160405190810160405280929190818152602001828054610bf99061302a565b8015610c465780601f10610c1b57610100808354040283529160200191610c46565b820191906000526020600020905b815481529060010190602001808311610c2957829003601f168201915b505050505081526020016008820154815260200160098201548152505090506000620151808484610c779190612f4b565b610c819190612d4f565b9050600081610c94846101200151611584565b610c9e9190612ef1565b9050803414610ce2576040517f08c379a0000000000000000000000000000000000000000000000000000000008152600401610cd990612946565b60405180910390fd5b610ced868686611d63565b15610d2d576040517f08c379a0000000000000000000000000000000000000000000000000000000008152600401610d24906129e6565b60405180910390fd5b6005600087815260200190815260200160002060405180606001604052803373ffffffffffffffffffffffffffffffffffffffff16815260200187815260200186815250908060018154018082558091505060019003906000526020600020906003020160009091909190915060008201518160000160006101000a81548173ffffffffffffffffffffffffffffffffffffffff021916908373ffffffffffffffffffffffffffffffffffffffff16021790555060208201518160010155604082015181600201555050826020015173ffffffffffffffffffffffffffffffffffffffff166108fc349081150290604051600060405180830381858888f19350505050158015610e41573d6000803e3d6000fd5b507f8145f5f7785888577f4b907341639304ff8a5ad886ca425f513abe27b44285658633878742604051610e79959493929190612bde565b60405180910390a1505050505050565b60606004805480602002602001604051908101604052809291908181526020016000905b828210156112c057838290600052602060002090600a020160405180610140016040529081600082015481526020016001820160009054906101000a900473ffffffffffffffffffffffffffffffffffffffff1673ffffffffffffffffffffffffffffffffffffffff1673ffffffffffffffffffffffffffffffffffffffff168152602001600282018054610f419061302a565b80601f0160208091040260200160405190810160405280929190818152602001828054610f6d9061302a565b8015610fba5780601f10610f8f57610100808354040283529160200191610fba565b820191906000526020600020905b815481529060010190602001808311610f9d57829003601f168201915b50505050508152602001600382018054610fd39061302a565b80601f0160208091040260200160405190810160405280929190818152602001828054610fff9061302a565b801561104c5780601f106110215761010080835404028352916020019161104c565b820191906000526020600020905b81548152906001019060200180831161102f57829003601f168201915b505050505081526020016004820180546110659061302a565b80601f01602080910402602001604051908101604052809291908181526020018280546110919061302a565b80156110de5780601f106110b3576101008083540402835291602001916110de565b820191906000526020600020905b8154815290600101906020018083116110c157829003601f168201915b505050505081526020016005820180546110f79061302a565b80601f01602080910402602001604051908101604052809291908181526020018280546111239061302a565b80156111705780601f1061114557610100808354040283529160200191611170565b820191906000526020600020905b81548152906001019060200180831161115357829003601f168201915b505050505081526020016006820180546111899061302a565b80601f01602080910402602001604051908101604052809291908181526020018280546111b59061302a565b80156112025780601f106111d757610100808354040283529160200191611202565b820191906000526020600020905b8154815290600101906020018083116111e557829003601f168201915b5050505050815260200160078201805461121b9061302a565b80601f01602080910402602001604051908101604052809291908181526020018280546112479061302a565b80156112945780601f1061126957610100808354040283529160200191611294565b820191906000526020600020905b81548152906001019060200180831161127757829003601f168201915b505050505081526020016008820154815260200160098201548152505081526020019060010190610ead565b50505050905090565b600160009054906101000a900473ffffffffffffffffffffffffffffffffffffffff1673ffffffffffffffffffffffffffffffffffffffff163373ffffffffffffffffffffffffffffffffffffffff1614611359576040517f08c379a0000000000000000000000000000000000000000000000000000000008152600401611350906129a6565b60405180910390fd5b600160009054906101000a900473ffffffffffffffffffffffffffffffffffffffff1673ffffffffffffffffffffffffffffffffffffffff166108fc479081150290604051600060405180830381858888f193505050501580156113c1573d6000803e3d6000fd5b50565b60025481565b600160009054906101000a900473ffffffffffffffffffffffffffffffffffffffff1673ffffffffffffffffffffffffffffffffffffffff163373ffffffffffffffffffffffffffffffffffffffff161461145a576040517f08c379a0000000000000000000000000000000000000000000000000000000008152600401611451906129a6565b60405180910390fd5b8060028190555050565b606060035482106114aa576040517f08c379a00000000000000000000000000000000000000000000000000000000081526004016114a190612966565b60405180910390fd5b60056000838152602001908152602001600020805480602002602001604051908101604052809291908181526020016000905b8282101561157957838290600052602060002090600302016040518060600160405290816000820160009054906101000a900473ffffffffffffffffffffffffffffffffffffffff1673ffffffffffffffffffffffffffffffffffffffff1673ffffffffffffffffffffffffffffffffffffffff16815260200160018201548152602001600282015481525050815260200190600101906114dd565b505050509050919050565b60008060006115916115c7565b9150915060008282600a6115a59190612dd3565b866115b09190612ef1565b6115ba9190612d4f565b9050809350505050919050565b60008060008060009054906101000a900473ffffffffffffffffffffffffffffffffffffffff16905060008173ffffffffffffffffffffffffffffffffffffffff1663feaf968c6040518163ffffffff1660e01b815260040160a06040518083038186803b15801561163857600080fd5b505afa15801561164c573d6000803e3d6000fd5b505050506040513d601f19601f82011682018060405250810190611670919061238c565b50505091505060008273ffffffffffffffffffffffffffffffffffffffff1663313ce5676040518163ffffffff1660e01b815260040160206040518083038186803b1580156116be57600080fd5b505afa1580156116d2573d6000803e3d6000fd5b505050506040513d601f19601f820116820180604052508101906116f69190612403565b60ff1690508181945094505050509091565b600254341461174c576040517f08c379a0000000000000000000000000000000000000000000000000000000008152600401611743906129c6565b60405180910390fd5b6000600354905060006040518061014001604052808381526020013373ffffffffffffffffffffffffffffffffffffffff1681526020018b81526020018a815260200189815260200188815260200187815260200186815260200185815260200184815250905060048190806001815401808255809150506001900390600052602060002090600a02016000909190919091506000820151816000015560208201518160010160006101000a81548173ffffffffffffffffffffffffffffffffffffffff021916908373ffffffffffffffffffffffffffffffffffffffff160217905550604082015181600201908051906020019061184c92919061205e565b50606082015181600301908051906020019061186992919061205e565b50608082015181600401908051906020019061188692919061205e565b5060a08201518160050190805190602001906118a392919061205e565b5060c08201518160060190805190602001906118c092919061205e565b5060e08201518160070190805190602001906118dd92919061205e565b50610100820151816008015561012082015181600901555050600360008154809291906119099061308d565b91905055507fa0c4bfdadb448904df95d75b6b9a5559d01fd1e5dcabf5b10f6c358eecfde4c782338c8c8c8c8c8c8c8c426040516119519b9a99989796959493929190612b09565b60405180910390a150505050505050505050565b6004818154811061197557600080fd5b90600052602060002090600a02016000915090508060000154908060010160009054906101000a900473ffffffffffffffffffffffffffffffffffffffff16908060020180546119c49061302a565b80601f01602080910402602001604051908101604052809291908181526020018280546119f09061302a565b8015611a3d5780601f10611a1257610100808354040283529160200191611a3d565b820191906000526020600020905b815481529060010190602001808311611a2057829003601f168201915b505050505090806003018054611a529061302a565b80601f0160208091040260200160405190810160405280929190818152602001828054611a7e9061302a565b8015611acb5780601f10611aa057610100808354040283529160200191611acb565b820191906000526020600020905b815481529060010190602001808311611aae57829003601f168201915b505050505090806004018054611ae09061302a565b80601f0160208091040260200160405190810160405280929190818152602001828054611b0c9061302a565b8015611b595780601f10611b2e57610100808354040283529160200191611b59565b820191906000526020600020905b815481529060010190602001808311611b3c57829003601f168201915b505050505090806005018054611b6e9061302a565b80601f0160208091040260200160405190810160405280929190818152602001828054611b9a9061302a565b8015611be75780601f10611bbc57610100808354040283529160200191611be7565b820191906000526020600020905b815481529060010190602001808311611bca57829003601f168201915b505050505090806006018054611bfc9061302a565b80601f0160208091040260200160405190810160405280929190818152602001828054611c289061302a565b8015611c755780601f10611c4a57610100808354040283529160200191611c75565b820191906000526020600020905b815481529060010190602001808311611c5857829003601f168201915b505050505090806007018054611c8a9061302a565b80601f0160208091040260200160405190810160405280929190818152602001828054611cb69061302a565b8015611d035780601f10611cd857610100808354040283529160200191611d03565b820191906000526020600020905b815481529060010190602001808311611ce657829003601f168201915b505050505090806008015490806009015490508a565b60008054906101000a900473ffffffffffffffffffffffffffffffffffffffff1681565b600160009054906101000a900473ffffffffffffffffffffffffffffffffffffffff1681565b60006003548410611da9576040517f08c379a0000000000000000000000000000000000000000000000000000000008152600401611da090612966565b60405180910390fd5b600060056000868152602001908152602001600020805480602002602001604051908101604052809291908181526020016000905b82821015611e7a57838290600052602060002090600302016040518060600160405290816000820160009054906101000a900473ffffffffffffffffffffffffffffffffffffffff1673ffffffffffffffffffffffffffffffffffffffff1673ffffffffffffffffffffffffffffffffffffffff1681526020016001820154815260200160028201548152505081526020019060010190611dde565b50505050905060005b8151811015611fe757818181518110611ec5577f4e487b7100000000000000000000000000000000000000000000000000000000600052603260045260246000fd5b6020026020010151602001518510158015611f245750818181518110611f14577f4e487b7100000000000000000000000000000000000000000000000000000000600052603260045260246000fd5b6020026020010151604001518511155b8015611f745750818181518110611f64577f4e487b7100000000000000000000000000000000000000000000000000000000600052603260045260246000fd5b6020026020010151602001518410155b8015611fc45750818181518110611fb4577f4e487b7100000000000000000000000000000000000000000000000000000000600052603260045260246000fd5b6020026020010151604001518411155b15611fd457600192505050611fee565b8080611fdf9061308d565b915050611e83565b5060009150505b9392505050565b60405180610140016040528060008152602001600073ffffffffffffffffffffffffffffffffffffffff16815260200160608152602001606081526020016060815260200160608152602001606081526020016060815260200160008152602001600081525090565b82805461206a9061302a565b90600052602060002090601f01602090048101928261208c57600085556120d3565b82601f106120a557805160ff19168380011785556120d3565b828001600101855582156120d3579182015b828111156120d25782518255916020019190600101906120b7565b5b5090506120e091906120e4565b5090565b5b808211156120fd5760008160009055506001016120e5565b5090565b600061211461210f84612c7f565b612c5a565b90508281526020810184848401111561212c57600080fd5b612137848285612fe8565b509392505050565b60008151905061214e816132a6565b92915050565b600082601f83011261216557600080fd5b8135612175848260208601612101565b91505092915050565b60008135905061218d816132bd565b92915050565b6000815190506121a2816132bd565b92915050565b6000815190506121b7816132eb565b92915050565b6000815190506121cc816132d4565b92915050565b600080600080600080600080610100898b0312156121ef57600080fd5b600089013567ffffffffffffffff81111561220957600080fd5b6122158b828c01612154565b985050602089013567ffffffffffffffff81111561223257600080fd5b61223e8b828c01612154565b975050604089013567ffffffffffffffff81111561225b57600080fd5b6122678b828c01612154565b965050606089013567ffffffffffffffff81111561228457600080fd5b6122908b828c01612154565b955050608089013567ffffffffffffffff8111156122ad57600080fd5b6122b98b828c01612154565b94505060a089013567ffffffffffffffff8111156122d657600080fd5b6122e28b828c01612154565b93505060c06122f38b828c0161217e565b92505060e06123048b828c0161217e565b9150509295985092959890939650565b60006020828403121561232657600080fd5b60006123348482850161217e565b91505092915050565b60008060006060848603121561235257600080fd5b60006123608682870161217e565b93505060206123718682870161217e565b92505060406123828682870161217e565b9150509250925092565b600080600080600060a086880312156123a457600080fd5b60006123b2888289016121a8565b95505060206123c38882890161213f565b94505060406123d488828901612193565b93505060606123e588828901612193565b92505060806123f6888289016121a8565b9150509295509295909350565b60006020828403121561241557600080fd5b6000612423848285016121bd565b91505092915050565b6000612438838361268d565b60608301905092915050565b600061245083836126cf565b905092915050565b61246181612f7f565b82525050565b61247081612f7f565b82525050565b600061248182612cd0565b61248b8185612d0b565b935061249683612cb0565b8060005b838110156124c75781516124ae888261242c565b97506124b983612cf1565b92505060018101905061249a565b5085935050505092915050565b60006124df82612cdb565b6124e98185612d1c565b9350836020820285016124fb85612cc0565b8060005b8581101561253757848403895281516125188582612444565b945061252383612cfe565b925060208a019950506001810190506124ff565b50829750879550505050505092915050565b600061255482612ce6565b61255e8185612d2d565b935061256e818560208601612ff7565b61257781613192565b840191505092915050565b600061258d82612ce6565b6125978185612d3e565b93506125a7818560208601612ff7565b6125b081613192565b840191505092915050565b60006125c8601283612d3e565b91506125d3826131b0565b602082019050919050565b60006125eb600f83612d3e565b91506125f6826131d9565b602082019050919050565b600061260e600f83612d3e565b915061261982613202565b602082019050919050565b6000612631601883612d3e565b915061263c8261322b565b602082019050919050565b6000612654601a83612d3e565b915061265f82613254565b602082019050919050565b6000612677601e83612d3e565b91506126828261327d565b602082019050919050565b6060820160008201516126a36000850182612458565b5060208201516126b660208501826128c9565b5060408201516126c960408501826128c9565b50505050565b6000610140830160008301516126e860008601826128c9565b5060208301516126fb6020860182612458565b50604083015184820360408601526127138282612549565b9150506060830151848203606086015261272d8282612549565b915050608083015184820360808601526127478282612549565b91505060a083015184820360a08601526127618282612549565b91505060c083015184820360c086015261277b8282612549565b91505060e083015184820360e08601526127958282612549565b9150506101008301516127ac6101008601826128c9565b506101208301516127c16101208601826128c9565b508091505092915050565b6000610140830160008301516127e560008601826128c9565b5060208301516127f86020860182612458565b50604083015184820360408601526128108282612549565b9150506060830151848203606086015261282a8282612549565b915050608083015184820360808601526128448282612549565b91505060a083015184820360a086015261285e8282612549565b91505060c083015184820360c08601526128788282612549565b91505060e083015184820360e08601526128928282612549565b9150506101008301516128a96101008601826128c9565b506101208301516128be6101208601826128c9565b508091505092915050565b6128d281612fbb565b82525050565b6128e181612fbb565b82525050565b60006020820190506128fc6000830184612467565b92915050565b6000602082019050818103600083015261291c8184612476565b905092915050565b6000602082019050818103600083015261293e81846124d4565b905092915050565b6000602082019050818103600083015261295f816125bb565b9050919050565b6000602082019050818103600083015261297f816125de565b9050919050565b6000602082019050818103600083015261299f81612601565b9050919050565b600060208201905081810360008301526129bf81612624565b9050919050565b600060208201905081810360008301526129df81612647565b9050919050565b600060208201905081810360008301526129ff8161266a565b9050919050565b60006020820190508181036000830152612a2081846127cc565b905092915050565b6000602082019050612a3d60008301846128d8565b92915050565b600061014082019050612a59600083018d6128d8565b612a66602083018c612467565b8181036040830152612a78818b612582565b90508181036060830152612a8c818a612582565b90508181036080830152612aa08189612582565b905081810360a0830152612ab48188612582565b905081810360c0830152612ac88187612582565b905081810360e0830152612adc8186612582565b9050612aec6101008301856128d8565b612afa6101208301846128d8565b9b9a5050505050505050505050565b600061016082019050612b1f600083018e6128d8565b612b2c602083018d612467565b8181036040830152612b3e818c612582565b90508181036060830152612b52818b612582565b90508181036080830152612b66818a612582565b905081810360a0830152612b7a8189612582565b905081810360c0830152612b8e8188612582565b905081810360e0830152612ba28187612582565b9050612bb26101008301866128d8565b612bc06101208301856128d8565b612bce6101408301846128d8565b9c9b505050505050505050505050565b600060a082019050612bf360008301886128d8565b612c006020830187612467565b612c0d60408301866128d8565b612c1a60608301856128d8565b612c2760808301846128d8565b9695505050505050565b6000604082019050612c4660008301856128d8565b612c5360208301846128d8565b9392505050565b6000612c64612c75565b9050612c70828261305c565b919050565b6000604051905090565b600067ffffffffffffffff821115612c9a57612c99613163565b5b612ca382613192565b9050602081019050919050565b6000819050602082019050919050565b6000819050602082019050919050565b600081519050919050565b600081519050919050565b600081519050919050565b6000602082019050919050565b6000602082019050919050565b600082825260208201905092915050565b600082825260208201905092915050565b600082825260208201905092915050565b600082825260208201905092915050565b6000612d5a82612fbb565b9150612d6583612fbb565b925082612d7557612d74613105565b5b828204905092915050565b6000808291508390505b6001851115612dca57808604811115612da657612da56130d6565b5b6001851615612db55780820291505b8081029050612dc3856131a3565b9450612d8a565b94509492505050565b6000612dde82612fbb565b9150612de983612fbb565b9250612e167fffffffffffffffffffffffffffffffffffffffffffffffffffffffffffffffff8484612e1e565b905092915050565b600082612e2e5760019050612eea565b81612e3c5760009050612eea565b8160018114612e525760028114612e5c57612e8b565b6001915050612eea565b60ff841115612e6e57612e6d6130d6565b5b8360020a915084821115612e8557612e846130d6565b5b50612eea565b5060208310610133831016604e8410600b8410161715612ec05782820a905083811115612ebb57612eba6130d6565b5b612eea565b612ecd8484846001612d80565b92509050818404811115612ee457612ee36130d6565b5b81810290505b9392505050565b6000612efc82612fbb565b9150612f0783612fbb565b9250817fffffffffffffffffffffffffffffffffffffffffffffffffffffffffffffffff0483118215151615612f4057612f3f6130d6565b5b828202905092915050565b6000612f5682612fbb565b9150612f6183612fbb565b925082821015612f7457612f736130d6565b5b828203905092915050565b6000612f8a82612f9b565b9050919050565b6000819050919050565b600073ffffffffffffffffffffffffffffffffffffffff82169050919050565b6000819050919050565b600060ff82169050919050565b600069ffffffffffffffffffff82169050919050565b82818337600083830152505050565b60005b83811015613015578082015181840152602081019050612ffa565b83811115613024576000848401525b50505050565b6000600282049050600182168061304257607f821691505b6020821081141561305657613055613134565b5b50919050565b61306582613192565b810181811067ffffffffffffffff8211171561308457613083613163565b5b80604052505050565b600061309882612fbb565b91507fffffffffffffffffffffffffffffffffffffffffffffffffffffffffffffffff8214156130cb576130ca6130d6565b5b600182019050919050565b7f4e487b7100000000000000000000000000000000000000000000000000000000600052601160045260246000fd5b7f4e487b7100000000000000000000000000000000000000000000000000000000600052601260045260246000fd5b7f4e487b7100000000000000000000000000000000000000000000000000000000600052602260045260246000fd5b7f4e487b7100000000000000000000000000000000000000000000000000000000600052604160045260246000fd5b6000601f19601f8301169050919050565b60008160011c9050919050565b7f696e737566666973616e7420616d6f756e740000000000000000000000000000600082015250565b7f57726f6e672072656e74616c2069640000000000000000000000000000000000600082015250565b7f77726f6e672072656e74616c2069640000000000000000000000000000000000600082015250565b7f4f6e6c792041646d696e2043616e2043616c6c20546869730000000000000000600082015250565b7f6d75737420706179206578616374206c697374696e6720666565000000000000600082015250565b7f616c726561647920626f6f6b656420666f7220676976656e2064617465730000600082015250565b6132af81612f91565b81146132ba57600080fd5b50565b6132c681612fbb565b81146132d157600080fd5b50565b6132dd81612fc5565b81146132e857600080fd5b50565b6132f481612fd2565b81146132ff57600080fd5b5056fea264697066735822122002bca47500277f995bf4b6eba4ea48a77aa73513518294e1fba4812d8513b47264736f6c63430008040033",
  "linkReferences": {},
  "deployedLinkReferences": {}
}